:0300000002068A6B
:0C068A00787FE4F6D8FD7581470206D1A8
:1007160020202020202020202020202020202020D3
:10072600004E6F204F6273742C466F72776172644D
:1007360021004F6273742C5475726E204C6566747A
:1007460021004F6273742C5475726E20526967686B
:100756007421004F6273742C4261636B776172641B
:10076600210041564F4944204641494C4544210009
:10077600496E697469616C20436F6D706C65746550
:10078600642100464154414C204552524F522100AB
:1002F1008F21E5217029E51D652170030204287D08
:10030100017F02120A107BFF7A0779161209227DFA
:10031100017F02120A107BFF7A077927020425E583
:100321002164017029E51D652170030204287D0106
:100331007F02120A107BFF7A0779161209227D01CA
:100341007F02120A107BFF7A077938020425E52122
:1003510064027029E51D652170030204287D017F77
:1003610002120A107BFF7A0779161209227D017F9A
:1003710002120A107BFF7A077948020425E52164FD
:10038100037028E51D652170030204287D017F02A9
:10039100120A107BFF7A0779161209227D017F026A
:1003A100120A107BFF7A0779598079E5216404707C
:1003B10025E51D652160707D017F02120A107BFF1A
:1003C1007A0779161209227D017F02120A107BFF3A
:1003D1007A077968804EE521B40720651D60487D64
:1003E100017F01120A107BFF7A0779761209227FB9
:1003F100F47E01120945120A9C802CE521640770E4
:1004010026E51D652160207D017F02120A107BFF18
:100411007A0779161209227D017F02120A107BFFE9
:0B0421007A07798912092285211D222B
:10094500E4F543FC7D0A12013D8E3F8F40D2AFD2C4
:0E095500ADD2CAE54360FCC2CAC2ADC2AF2239
:1009B400E4F5438E3F8F40D2AFD2ADD2CAE5436057
:0809C400FCC2CAC2ADC2AF22A1
:03002B000208D2F6
:1008D200C0E0C0D0C2CF75CDFF75CC9C0542E542C9
:1008E20070020541C39540E541953F4009754100BD
:0B08F200754200754301D0D0D0E03209
:05000600C290D291221E
:050A8D00D290C291228D
:050A9200C292D2932284
:050A9700D292C293227F
:090A6B00C290C291C292C2932212
:0708FD00120A927F887E13AE
:10090400E4F543FC7D0A12013D8E3F8F40D2AFD205
:0E091400ADD2CAE54360FCC2CAC2ADC2AF227A
:090A74001200061208FD020A6BD3
:0C0A3200120A8D120A97120900020A6BCA
:090A7D00120A8D1208FD020A6B39
:0C0A3E00120006120A97120900020A6B4F
:0A0A6100444953543A2000434D006D
:1009FB008F3C7F057E00120945C2A3C2A4D2A585F8
:050A0B003C80C2A522A1
:0309CC002430FFD5
:1009CF008F3E7F057E00120945D2A3C2A4D2A58512
:0509DF003E80C2A522CC
:100A10008D3BE53BBF0104247F800224BFFF120908
:020A2000FB22B7
:100922008B3B8A3C893DAB3BAA3CA93D120124FF8B
:1009320060101209CF7401253DF53DE4353CF53CCC
:0309420080E4222C
:1007EC007F381209FB7F017E001209457F38120900
:1007FC00FB7F017E001209457F381209FB7F017EC9
:10080C00001209457F381209FB7F081209FB7F0192
:10081C001209FB7F061209FB7F017E001209457F3E
:04082C000C0209FBB6
:050A9C007F010209FBCF
:1005FC008F398D3A7C037DE8AF03AE0212014F8F29
:10060C00447C037DE8AF03AE0212014FAA04AB0594
:10061C007C007D64AF03AE0212014F8F457C007DE0
:10062C0064AF03AE0212014FAA04AB057C007D0A35
:10063C00AF03AE0212014F8F467C007D0AAF03AEB2
:10064C000212014F8D47AD3AAF39120A107BFF7A77
:10065C000A7961120922E5441209CCE5451209CC4C
:10066C00E5462430FF1209CF7F2E1209CFE547242F
:0E067C0030FF1209CF7BFF7A0A79680209224B
:060A8600011E00011D002D
:10000E001207EC120A4A1209E47F071202F11207D4
:0D001E00968F1E1208A6AF1E1202F180F18F
:1008A6008F21E5217003020A74E521B40102800D4F
:1008B600E521B40203020A3EE521B40303020A7DE0
:0C08C600E521B40403020A32120A6B227E
:100A2200000707070707070701070307020704056F
:10079600E4F521F52278237C00FD7BFF7A0A792295
:1007A600FE7F101200FEE4F52112042C8F22E522B2
:1007B60064016004E521602412099912042CE522E3
:1007C60025E02FF52212096312097E12042CE52278
:1007D60025E02FF52225E0F522120963E5224521C1
:0507E6002423F8E6FFEA
:0107EB0022EB
:10087300208404E4FF802B308428A284E433FEEF39
:1008830025E04EFFA285E433FEEF25E04EFFA28470
:10089300E433FEEF25E04EFFA285E433FEEF25E0CF
:0208A3004EFF06
:0108A5002230
:1009E400758911E4F51AF51BF518F519F516F517BF
:0709F400F51CC29702096324
:10096300E4F51CF516751704D297D2AFD2A9D28C31
:0B097300E51C60FCC28CC2A9C2AF22D0
:10097E00E4F51CF516751702D297D2AFD2A9D28C18
:0B098E00E51C60FCC28CC2A9C2AF22B5
:10099900E4F51CF516751707D297D2AFD2A9D28CF8
:0B09A900E51C60FCC28CC2A9C2AF229A
:03000B00020830B8
:10083000C0E0C0D0758CFE758AD4051BE51B700224
:10084000051AB51715E51AB51610B297751A007581
:100850001B000519E51970020518C3E51994C8E5D0
:100860001894004009751C01751800751900D0D046
:03087000D0E032A3
:0C0A4A00C2B3758911C288C2A8C2AF22D5
:10042C00E4F538F537C2AFD2B37F017E001209B4C0
:10043C00C2B330B2FDC200D2A8E4F58DF58BC28FE9
:10044C00D28ED2AFE58DC3941E40F9C28EC2A8C223
:10045C00AF30005CE4850836F535F534F533AF364E
:10046C00AE35AD34AC3378081202D28F368E358D62
:10047C00348C33E5094536F536E535F535E534F597
:10048C0034E533F533AF36AE35AD34FCE47B0CFAE2
:10049C00F9F81201A48F368E358D348C33E47B3A07
:1004AC00FAF9F812022F8F368E358D348C33801179
:1004BC0020000BE4F536F535F534F53380037F1F5A
:1004CC0022AF36AE35AD34AC33E53725E025E0242C
:1004DC000AF81202E50537E537D3940250030204FB
:1004EC0031C2AF12054DAA10AB117D017F0112056F
:1004FC00FCE47F2D7E01FDFCAB11AA10A90FA80E08
:10050C00D31202C1500DE4FFFEFDFCA80EC3120273
:10051C00C17005E4F5388003753801E4F50DF50C70
:10052C00F50BF50AF511F510F50FF50EF515F5149B
:10053C00F513F512F519F518F517F516D2AFAF3806
:01054C00228C
:10054D00AF11AE10AD0FAC0EAB0DAA0CA90BA80AD6
:10055D00D31202C14024850D3C850C3B850B3A8599
:10056D000A3985110D85100C850F0B850E0A853CFA
:10057D0011853B10853A0F85390EAF15AE14AD13AD
:10058D00AC12AB0DAA0CA90BA80AD31202C14024C0
:10059D0085153C85143B85133A851239850D1585D6
:1005AD000C14850B13850A12853C0D853B0C853A81
:1005BD000B85390AAF15AE14AD13AC12AB11AA10E1
:1005CD00A90FA80ED31202C1402485113C85103B02
:1005DD00850F3A850E3985151185141085130F85F4
:0E05ED00120E853C15853B14853A1385391294
:0105FB0022DD
:03000300020A5698
:0B0A5600858D08858B09D200C2A832F4
:1006960002000EE493A3F8E493A34003F68001F26C
:1006A60008DFF48029E493A3F85407240CC8C33365
:1006B600C4540F4420C8834004F456800146F6DF34
:1006C600E4800B0102040810204080900A86E47E34
:1006D600019360BCA3FF543F30E509541FFEE49329
:1006E600A360010ECF54C025E060A840B8E493A3F0
:1006F600FAE493A3F8E493A3C8C582C8CAC583CA1B
:10070600F0A3C8C582C8CAC583CADFE9DEE780BED2
:010A8C000069
:10002E00E709F608DFFA8046E709F208DFFA803EB4
:10003E0088828C83E709F0A3DFFA8032E309F608A1
:10004E00DFFA8078E309F208DFFA807088828C8309
:10005E00E309F0A3DFFA806489828A83E0A3F608BD
:10006E00DFFA805889828A83E0A3F208DFFA804C97
:10007E0080D280FA80C680D4806980F2803380106E
:10008E0080A680EA809A80A880DA80E280CA8033D7
:10009E0089828A83ECFAE493A3C8C582C8CCC5834F
:1000AE00CCF0A3C8C582C8CCC583CCDFE9DEE7801F
:1000BE000D89828A83E493A3F608DFF9ECFAA9F09E
:1000CE00EDFB2289828A83ECFAE0A3C8C582C8CCF4
:1000DE00C583CCF0A3C8C582C8CCC583CCDFEADE0D
:1000EE00E880DB89828A83E493A3F208DFF980CC6F
:1000FE0088F0EF60010E4E60C388F0ED2402B40468
:10010E000050B9F582EB2402B4040050AF2323450E
:06011E00822390007E73B5
:10012400BB010689828A83E0225002E722BBFE02D9
:09013400E32289828A83E493220C
:10013D00EF8DF0A4A8F0CF8CF0A428CE8DF0A42ED6
:02014D00FE2290
:10014F00BC000BBE0029EF8DF084FFADF022E4CC94
:10015F00F875F008EF2FFFEE33FEEC33FCEE9DEC5D
:10016F00984005FCEE9DFE0FD5F0E9E4CEFD22EDA3
:10017F00F8F5F0EE8420D21CFEADF075F008EF2FED
:10018F00FFED33FD4007985006D5F0F222C398FDDE
:05019F000FD5F0EA227B
:1001A400E88FF0A4CC8BF0A42CFCE98EF0A42CFCFA
:1001B4008AF0EDA42CFCEA8EF0A4CDA8F08BF0A478
:1001C4002DCC3825F0FDE98FF0A42CCD35F0FCEBD7
:1001D4008EF0A4FEA9F0EB8FF0A4CFC5F02ECD399C
:0F01E400FEE43CFCEAA42DCE35F0FDE43CFC2209
:1001F30075F008758200EF2FFFEE33FECD33CDCCC3
:1002030033CCC58233C5829BED9AEC99E582984045
:100213000CF582EE9BFEED9AFDEC99FC0FD5F0D622
:10022300E4CEFBE4CDFAE4CCF9A88222B800C1B94C
:100233000059BA002DEC8BF084CFCECDFCE5F0CB8A
:10024300F97818EF2FFFEE33FEED33FDEC33FCEBC3
:1002530033FB10D703994004EB99FB0FD8E5E4F97E
:10026300FA227818EF2FFFEE33FEED33FDEC33FC6B
:10027300C933C910D7059BE99A4007EC9BFCE99A5F
:10028300F90FD8E0E4C9FAE4CCFB2275F010EF2FA4
:10029300FFEE33FEED33FDCC33CCC833C810D707A4
:1002A3009BEC9AE899400AED9BFDEC9AFCE899F8DF
:0E02B3000FD5F0DAE4CDFBE4CCFAE4C8F92272
:1002C100EB9FF5F0EA9E42F0E99D42F0E89C45F093
:0102D100220A
:1002D200E8600FEFC333FFEE33FEED33FDEC33FC8A
:0302E200D8F1222E
:0C02E500ECF608EDF608EEF608EFF62245
:00000001FF
